{
  "contractName": "PubSubContract",
  "abi": [
    {
      "anonymous": false,
      "inputs": [
        {
          "indexed": false,
          "internalType": "string",
          "name": "topic",
          "type": "string"
        },
        {
          "indexed": false,
          "internalType": "string",
          "name": "message",
          "type": "string"
        },
        {
          "indexed": false,
          "internalType": "address",
          "name": "subscriber",
          "type": "address"
        }
      ],
      "name": "MessageReceived",
      "type": "event"
    },
    {
      "inputs": [
        {
          "internalType": "uint256",
          "name": "",
          "type": "uint256"
        }
      ],
      "name": "topicNames",
      "outputs": [
        {
          "internalType": "string",
          "name": "",
          "type": "string"
        }
      ],
      "stateMutability": "view",
      "type": "function",
      "constant": true
    },
    {
      "inputs": [
        {
          "internalType": "string",
          "name": "",
          "type": "string"
        }
      ],
      "name": "topics",
      "outputs": [
        {
          "internalType": "string",
          "name": "name",
          "type": "string"
        }
      ],
      "stateMutability": "view",
      "type": "function",
      "constant": true
    },
    {
      "inputs": [
        {
          "internalType": "string",
          "name": "topicName",
          "type": "string"
        }
      ],
      "name": "advertise",
      "outputs": [],
      "stateMutability": "payable",
      "type": "function",
      "payable": true
    },
    {
      "inputs": [
        {
          "internalType": "string",
          "name": "topicName",
          "type": "string"
        }
      ],
      "name": "subscribe",
      "outputs": [],
      "stateMutability": "payable",
      "type": "function",
      "payable": true
    },
    {
      "inputs": [
        {
          "internalType": "string",
          "name": "topicName",
          "type": "string"
        },
        {
          "internalType": "string",
          "name": "message",
          "type": "string"
        }
      ],
      "name": "publish",
      "outputs": [],
      "stateMutability": "payable",
      "type": "function",
      "payable": true
    },
    {
      "inputs": [
        {
          "internalType": "string",
          "name": "topicName",
          "type": "string"
        }
      ],
      "name": "unsubscribe",
      "outputs": [],
      "stateMutability": "nonpayable",
      "type": "function"
    },
    {
      "inputs": [],
      "name": "printAllTopics",
      "outputs": [
        {
          "internalType": "string",
          "name": "",
          "type": "string"
        }
      ],
      "stateMutability": "view",
      "type": "function",
      "constant": true
    }
  ],
  "bytecode": "0x608060405234801561001057600080fd5b50612502806100206000396000f3fe6080604052600436106100705760003560e01c806360e7c9341161004e57806360e7c934146102b3578063b733709814610343578063c163bba7146103f7578063f75c6c721461054957610070565b806339d6f2b31461007557806347cc5f9a14610130578063507e7888146101f8575b600080fd5b61012e6004803603602081101561008b57600080fd5b81019080803590602001906401000000008111156100a857600080fd5b8201836020820111156100ba57600080fd5b803590602001918460018302840111640100000000831117156100dc57600080fd5b91908080601f016020809104026020016040519081016040528093929190818152602001838380828437600081840152601f19601f82011690508083019250505050505050919291929050505061068a565b005b34801561013c57600080fd5b506101f66004803603602081101561015357600080fd5b810190808035906020019064010000000081111561017057600080fd5b82018360208201111561018257600080fd5b803590602001918460018302840111640100000000831117156101a457600080fd5b91908080601f016020809104026020016040519081016040528093929190818152602001838380828437600081840152601f19601f820116905080830192505050505050509192919290505050610996565b005b6102b16004803603602081101561020e57600080fd5b810190808035906020019064010000000081111561022b57600080fd5b82018360208201111561023d57600080fd5b8035906020019184600183028401116401000000008311171561025f57600080fd5b91908080601f016020809104026020016040519081016040528093929190818152602001838380828437600081840152601f19601f820116905080830192505050505050509192919290505050610d7b565b005b3480156102bf57600080fd5b506102c86110f0565b6040518080602001828103825283818151815260200191508051906020019080838360005b838110156103085780820151818401526020810190506102ed565b50505050905090810190601f1680156103355780820380516001836020036101000a031916815260200191505b509250505060405180910390f35b34801561034f57600080fd5b5061037c6004803603602081101561036657600080fd5b81019080803590602001909291905050506119b7565b6040518080602001828103825283818151815260200191508051906020019080838360005b838110156103bc5780820151818401526020810190506103a1565b50505050905090810190601f1680156103e95780820380516001836020036101000a031916815260200191505b509250505060405180910390f35b6105476004803603604081101561040d57600080fd5b810190808035906020019064010000000081111561042a57600080fd5b82018360208201111561043c57600080fd5b8035906020019184600183028401116401000000008311171561045e57600080fd5b91908080601f016020809104026020016040519081016040528093929190818152602001838380828437600081840152601f19601f820116905080830192505050505050509192919290803590602001906401000000008111156104c157600080fd5b8201836020820111156104d357600080fd5b803590602001918460018302840111640100000000831117156104f557600080fd5b91908080601f016020809104026020016040519081016040528093929190818152602001838380828437600081840152601f19601f820116905080830192505050505050509192919290505050611a70565b005b34801561055557600080fd5b5061060f6004803603602081101561056c57600080fd5b810190808035906020019064010000000081111561058957600080fd5b82018360208201111561059b57600080fd5b803590602001918460018302840111640100000000831117156105bd57600080fd5b91908080601f016020809104026020016040519081016040528093929190818152602001838380828437600081840152601f19601f82011690508083019250505050505050919291929050505061212b565b6040518080602001828103825283818151815260200191508051906020019080838360005b8381101561064f578082015181840152602081019050610634565b50505050905090810190601f16801561067c5780820380516001836020036101000a031916815260200191505b509250505060405180910390f35b66132f4579c980003414610706576040517f08c379a00000000000000000000000000000000000000000000000000000000081526004018080602001828103825260208152602001807f53656e7420616d6f756e74206d75737420626520302e3030353420657468657281525060200191505060405180910390fd5b600080826040518082805190602001908083835b6020831061073d578051825260208201915060208101905060208303925061071a565b6001836020036101000a0380198251168184511680821785525050505050509050019150509081526020016040518091039020600001805460018160011615610100020316600290049050141561084c57806000826040518082805190602001908083835b602083106107c557805182526020820191506020810190506020830392506107a2565b6001836020036101000a0380198251168184511680821785525050505050509050019150509081526020016040518091039020600001908051906020019061080e92919061242f565b5060018190806001815401808255809150506001900390600052602060002001600090919091909150908051906020019061084a92919061242f565b505b6108c16000826040518082805190602001908083835b602083106108855780518252602082019150602081019050602083039250610862565b6001836020036101000a0380198251168184511680821785525050505050509050019150509081526020016040518091039020600201336121f7565b610993576000816040518082805190602001908083835b602083106108fb57805182526020820191506020810190506020830392506108d8565b6001836020036101000a0380198251168184511680821785525050505050509050019150509081526020016040518091039020600201339080600181540180825580915050600190039060005260206000200160009091909190916101000a81548173ffffffffffffffffffffffffffffffffffffffff021916908373ffffffffffffffffffffffffffffffffffffffff1602179055505b50565b600080826040518082805190602001908083835b602083106109cd57805182526020820191506020810190506020830392506109aa565b6001836020036101000a038019825116818451168082178552505050505050905001915050908152602001604051809103902060000180546001816001161561010002031660029004905011610a8b576040517f08c379a00000000000000000000000000000000000000000000000000000000081526004018080602001828103825260148152602001807f546f70696320646f6573206e6f7420657869737400000000000000000000000081525060200191505060405180910390fd5b610b006000826040518082805190602001908083835b60208310610ac45780518252602082019150602081019050602083039250610aa1565b6001836020036101000a0380198251168184511680821785525050505050509050019150509081526020016040518091039020600301336121f7565b610b72576040517f08c379a000000000000000000000000000000000000000000000000000000000815260040180806020018281038252601c8152602001807f4e6f74207375627363726962656420746f207468697320746f7069630000000081525060200191505060405180910390fd5b60005b6000826040518082805190602001908083835b60208310610bab5780518252602082019150602081019050602083039250610b88565b6001836020036101000a038019825116818451168082178552505050505050905001915050908152602001604051809103902060030180549050811015610d77573373ffffffffffffffffffffffffffffffffffffffff166000836040518082805190602001908083835b60208310610c395780518252602082019150602081019050602083039250610c16565b6001836020036101000a03801982511681845116808217855250505050505090500191505090815260200160405180910390206003018281548110610c7a57fe5b9060005260206000200160009054906101000a900473ffffffffffffffffffffffffffffffffffffffff1673ffffffffffffffffffffffffffffffffffffffff161415610d6a576000826040518082805190602001908083835b60208310610cf75780518252602082019150602081019050602083039250610cd4565b6001836020036101000a03801982511681845116808217855250505050505090500191505090815260200160405180910390206003018181548110610d3857fe5b9060005260206000200160006101000a81549073ffffffffffffffffffffffffffffffffffffffff0219169055610d77565b8080600101915050610b75565b5050565b66132f4579c980003414610df7576040517f08c379a00000000000000000000000000000000000000000000000000000000081526004018080602001828103825260208152602001807f53656e7420616d6f756e74206d75737420626520302e3030353420657468657281525060200191505060405180910390fd5b6706f05b59d3b200003414610e74576040517f08c379a00000000000000000000000000000000000000000000000000000000081526004018080602001828103825260198152602001807f4465706f736974206d75737420626520302e352065746865720000000000000081525060200191505060405180910390fd5b600080826040518082805190602001908083835b60208310610eab5780518252602082019150602081019050602083039250610e88565b6001836020036101000a038019825116818451168082178552505050505050905001915050908152602001604051809103902060000180546001816001161561010002031660029004905011610f69576040517f08c379a00000000000000000000000000000000000000000000000000000000081526004018080602001828103825260148152602001807f546f70696320646f6573206e6f7420657869737400000000000000000000000081525060200191505060405180910390fd5b6000816040518082805190602001908083835b60208310610f9f5780518252602082019150602081019050602083039250610f7c565b6001836020036101000a0380198251168184511680821785525050505050509050019150509081526020016040518091039020600301339080600181540180825580915050600190039060005260206000200160009091909190916101000a81548173ffffffffffffffffffffffffffffffffffffffff021916908373ffffffffffffffffffffffffffffffffffffffff160217905550346000826040518082805190602001908083835b6020831061106d578051825260208201915060208101905060208303925061104a565b6001836020036101000a038019825116818451168082178552505050505050905001915050908152602001604051809103902060050160003373ffffffffffffffffffffffffffffffffffffffff1673ffffffffffffffffffffffffffffffffffffffff1681526020019081526020016000206000828254019250508190555050565b60608060005b6001805490508110156119af578160006001838154811061111357fe5b9060005260206000200160405180828054600181600116156101000203166002900480156111785780601f10611156576101008083540402835291820191611178565b820191906000526020600020905b815481529060010190602001808311611164575b505091505090815260200160405180910390206000016040516020018083805190602001908083835b602083106111c457805182526020820191506020810190506020830392506111a1565b6001836020036101000a038019825116818451168082178552505050505050905001807f546f7069633a2000000000000000000000000000000000000000000000000000815250600701828054600181600116156101000203166002900480156112655780601f10611243576101008083540402835291820191611265565b820191906000526020600020905b815481529060010190602001808311611251575b5050807f0a00000000000000000000000000000000000000000000000000000000000000815250600101925050506040516020818303038152906040529150816040516020018082805190602001908083835b602083106112db57805182526020820191506020810190506020830392506112b8565b6001836020036101000a038019825116818451168082178552505050505050905001807f5075626c6973686572733a200000000000000000000000000000000000000000815250600c01915050604051602081830303815290604052915060005b60006001838154811061134b57fe5b9060005260206000200160405180828054600181600116156101000203166002900480156113b05780601f1061138e5761010080835404028352918201916113b0565b820191906000526020600020905b81548152906001019060200180831161139c575b505091505090815260200160405180910390206002018054905081101561158d578261149a6000600185815481106113e457fe5b9060005260206000200160405180828054600181600116156101000203166002900480156114495780601f10611427576101008083540402835291820191611449565b820191906000526020600020905b815481529060010190602001808311611435575b50509150509081526020016040518091039020600201838154811061146a57fe5b9060005260206000200160009054906101000a900473ffffffffffffffffffffffffffffffffffffffff16612298565b6040516020018083805190602001908083835b602083106114d057805182526020820191506020810190506020830392506114ad565b6001836020036101000a03801982511681845116808217855250505050505090500182805190602001908083835b6020831061152157805182526020820191506020810190506020830392506114fe565b6001836020036101000a038019825116818451168082178552505050505050905001807f2000000000000000000000000000000000000000000000000000000000000000815250600101925050506040516020818303038152906040529250808060010191505061133c565b50816040516020018082805190602001908083835b602083106115c557805182526020820191506020810190506020830392506115a2565b6001836020036101000a038019825116818451168082178552505050505050905001807f0a000000000000000000000000000000000000000000000000000000000000008152506001019150506040516020818303038152906040529150816040516020018082805190602001908083835b6020831061165a5780518252602082019150602081019050602083039250611637565b6001836020036101000a038019825116818451168082178552505050505050905001807f53756273637269626572733a2000000000000000000000000000000000000000815250600d01915050604051602081830303815290604052915060005b6000600183815481106116ca57fe5b90600052602060002001604051808280546001816001161561010002031660029004801561172f5780601f1061170d57610100808354040283529182019161172f565b820191906000526020600020905b81548152906001019060200180831161171b575b505091505090815260200160405180910390206003018054905081101561190c578261181960006001858154811061176357fe5b9060005260206000200160405180828054600181600116156101000203166002900480156117c85780601f106117a65761010080835404028352918201916117c8565b820191906000526020600020905b8154815290600101906020018083116117b4575b5050915050908152602001604051809103902060030183815481106117e957fe5b9060005260206000200160009054906101000a900473ffffffffffffffffffffffffffffffffffffffff16612298565b6040516020018083805190602001908083835b6020831061184f578051825260208201915060208101905060208303925061182c565b6001836020036101000a03801982511681845116808217855250505050505090500182805190602001908083835b602083106118a0578051825260208201915060208101905060208303925061187d565b6001836020036101000a038019825116818451168082178552505050505050905001807f200000000000000000000000000000000000000000000000000000000000000081525060010192505050604051602081830303815290604052925080806001019150506116bb565b50816040516020018082805190602001908083835b602083106119445780518252602082019150602081019050602083039250611921565b6001836020036101000a038019825116818451168082178552505050505050905001807f0a0a000000000000000000000000000000000000000000000000000000000000815250600201915050604051602081830303815290604052915080806001019150506110f6565b508091505090565b600181815481106119c457fe5b906000526020600020016000915090508054600181600116156101000203166002900480601f016020809104026020016040519081016040528092919081815260200182805460018160011615610100020316600290048015611a685780601f10611a3d57610100808354040283529160200191611a68565b820191906000526020600020905b815481529060010190602001808311611a4b57829003601f168201915b505050505081565b66132f4579c980003414611aec576040517f08c379a00000000000000000000000000000000000000000000000000000000081526004018080602001828103825260208152602001807f53656e7420616d6f756e74206d75737420626520302e3030353420657468657281525060200191505060405180910390fd5b611b616000836040518082805190602001908083835b60208310611b255780518252602082019150602081019050602083039250611b02565b6001836020036101000a0380198251168184511680821785525050505050509050019150509081526020016040518091039020600201336121f7565b611bd3576040517f08c379a00000000000000000000000000000000000000000000000000000000081526004018080602001828103825260198152602001807f4e6f7420617574686f72697a656420746f207075626c6973680000000000000081525060200191505060405180910390fd5b6000826040518082805190602001908083835b60208310611c095780518252602082019150602081019050602083039250611be6565b6001836020036101000a038019825116818451168082178552505050505050905001915050908152602001604051809103902060010181908060018154018082558091505060019003906000526020600020016000909190919091509080519060200190611c7892919061242f565b5060005b6000836040518082805190602001908083835b60208310611cb25780518252602082019150602081019050602083039250611c8f565b6001836020036101000a03801982511681845116808217855250505050505090500191505090815260200160405180910390206003018054905081101561212657600080846040518082805190602001908083835b60208310611d2a5780518252602082019150602081019050602083039250611d07565b6001836020036101000a03801982511681845116808217855250505050505090500191505090815260200160405180910390206003018281548110611d6b57fe5b9060005260206000200160009054906101000a900473ffffffffffffffffffffffffffffffffffffffff1690506611c37937e080006000856040518082805190602001908083835b60208310611dd65780518252602082019150602081019050602083039250611db3565b6001836020036101000a038019825116818451168082178552505050505050905001915050908152602001604051809103902060050160008373ffffffffffffffffffffffffffffffffffffffff1673ffffffffffffffffffffffffffffffffffffffff1681526020019081526020016000205410612118576611c37937e080006000856040518082805190602001908083835b60208310611e8d5780518252602082019150602081019050602083039250611e6a565b6001836020036101000a038019825116818451168082178552505050505050905001915050908152602001604051809103902060050160008373ffffffffffffffffffffffffffffffffffffffff1673ffffffffffffffffffffffffffffffffffffffff168152602001908152602001600020600082825403925050819055506000846040518082805190602001908083835b60208310611f435780518252602082019150602081019050602083039250611f20565b6001836020036101000a038019825116818451168082178552505050505050905001915050908152602001604051809103902060040160008273ffffffffffffffffffffffffffffffffffffffff1673ffffffffffffffffffffffffffffffffffffffff16815260200190815260200160002083908060018154018082558091505060019003906000526020600020016000909190919091509080519060200190611fef92919061242f565b507f1d8ccc9f2d29e384e86bdd5dc21dbcdec3d6c5792eb6db7a465be828e0b0ff098484836040518080602001806020018473ffffffffffffffffffffffffffffffffffffffff168152602001838103835286818151815260200191508051906020019080838360005b83811015612074578082015181840152602081019050612059565b50505050905090810190601f1680156120a15780820380516001836020036101000a031916815260200191505b50838103825285818151815260200191508051906020019080838360005b838110156120da5780820151818401526020810190506120bf565b50505050905090810190601f1680156121075780820380516001836020036101000a031916815260200191505b509550505050505060405180910390a15b508080600101915050611c7c565b505050565b600081805160208101820180518482526020830160208501208183528095505050505050600091509050806000018054600181600116156101000203166002900480601f0160208091040260200160405190810160405280929190818152602001828054600181600116156101000203166002900480156121ed5780601f106121c2576101008083540402835291602001916121ed565b820191906000526020600020905b8154815290600101906020018083116121d057829003601f168201915b5050505050905081565b600080600090505b838054905081101561228c578273ffffffffffffffffffffffffffffffffffffffff1684828154811061222e57fe5b9060005260206000200160009054906101000a900473ffffffffffffffffffffffffffffffffffffffff1673ffffffffffffffffffffffffffffffffffffffff16141561227f576001915050612292565b80806001019150506121ff565b50600090505b92915050565b606080602867ffffffffffffffff811180156122b357600080fd5b506040519080825280601f01601f1916602001820160405280156122e65781602001600182028036833780820191505090505b50905060005b60148110156123f15760008160130360080260020a8573ffffffffffffffffffffffffffffffffffffffff168161231f57fe5b0460f81b9050600060108260f81c60ff168161233757fe5b0460f81b905060008160f81c6010028360f81c0360f81b9050612359826123fb565b85856002028151811061236857fe5b60200101907effffffffffffffffffffffffffffffffffffffffffffffffffffffffffffff1916908160001a9053506123a0816123fb565b8560018660020201815181106123b257fe5b60200101907effffffffffffffffffffffffffffffffffffffffffffffffffffffffffffff1916908160001a90535050505080806001019150506122ec565b5080915050919050565b6000600a8260f81c60ff16101561241d5760308260f81c0160f81b905061242a565b60578260f81c0160f81b90505b919050565b828054600181600116156101000203166002900490600052602060002090601f016020900481019282601f1061247057805160ff191683800117855561249e565b8280016001018555821561249e579182015b8281111561249d578251825591602001919060010190612482565b5b5090506124ab91906124af565b5090565b5b808211156124c85760008160009055506001016124b0565b509056fea2646970667358221220014c2b7f771303c45465f99a9e6cafcdd0f6a990f97f5c909bd8165a5aef2f3d64736f6c63430007010033",
  "immutableReferences": {},
  "source": "pragma solidity >=0.7.0 <0.9.0;\n\ncontract PubSubContract {\n    struct Topic {\n        string name;\n        string[] messages;\n        address[] publishers;\n        address[] subscribers;\n        mapping(address => string[]) subscriberToMessage;\n        mapping(address => uint) subscriberToBalance;\n    }\n\n    mapping(string => Topic) public topics;\n    string[] public topicNames;\n\n\n    event MessageReceived(string topic, string message, address subscriber);\n\n    // Modifier to require a specific amount of Wei\n    modifier requirePayment() {\n        require(msg.value == 5400000000000000, \"Sent amount must be 0.0054 ether\");\n        _;\n    }\n\n    function advertise(string memory topicName) public payable requirePayment {\n        if (bytes(topics[topicName].name).length == 0) {\n            topics[topicName].name = topicName;\n            topicNames.push(topicName);\n        }\n\n        if (!contains(topics[topicName].publishers, msg.sender)) {\n            topics[topicName].publishers.push(msg.sender);\n        }\n\n        }\n\n\n    function subscribe(string memory topicName) public payable requirePayment{\n        require(msg.value == 0.5 ether, \"Deposit must be 0.5 ether\");\n        require(bytes(topics[topicName].name).length > 0, \"Topic does not exist\");\n\n        topics[topicName].subscribers.push(msg.sender);\n        topics[topicName].subscriberToBalance[msg.sender] += msg.value;\n\n    }\n\n    function publish(string memory topicName, string memory message) public payable requirePayment {\n        require(contains(topics[topicName].publishers, msg.sender), \"Not authorized to publish\");\n\n        topics[topicName].messages.push(message);\n\n        for (uint i = 0; i < topics[topicName].subscribers.length; i++) {\n            address subscriber = topics[topicName].subscribers[i];\n            if (topics[topicName].subscriberToBalance[subscriber] >= 0.005 ether) {\n                topics[topicName].subscriberToBalance[subscriber] -= 0.005 ether;\n                topics[topicName].subscriberToMessage[subscriber].push(message);\n\n                emit MessageReceived(topicName, message, subscriber);\n            }\n        }\n    }\n\n    function unsubscribe(string memory topicName) public {\n        require(bytes(topics[topicName].name).length > 0, \"Topic does not exist\");\n        require(contains(topics[topicName].subscribers, msg.sender), \"Not subscribed to this topic\");\n\n        // uint remainingBalance = topics[topicName].subscriberToBalance[msg.sender];\n        // if (remainingBalance > 0) {\n        //     payable(msg.sender).transfer(remainingBalance);\n        // }\n\n        // Remove subscriber from the list\n        for (uint i = 0; i < topics[topicName].subscribers.length; i++) {\n            if (topics[topicName].subscribers[i] == msg.sender) {\n                delete topics[topicName].subscribers[i];\n                break;\n            }\n        }\n    }\n\n    // Helper function to check if an address is in an array\n    function contains(address[] storage array, address element) internal view returns (bool) {\n        for (uint i = 0; i < array.length; i++) {\n            if (array[i] == element) {\n                return true;\n            }\n        }\n        return false;\n    }\n\n\n// Add this function to your contract\nfunction printAllTopics() public view returns (string memory) {\n    string memory result;\n\n    for (uint i = 0; i < topicNames.length; i++) {\n        result = string(abi.encodePacked(result, \"Topic: \", topics[topicNames[i]].name, \"\\n\"));\n\n        // Print publishers\n        result = string(abi.encodePacked(result, \"Publishers: \"));\n\n        for (uint j = 0; j < topics[topicNames[i]].publishers.length; j++) {\n            result = string(abi.encodePacked(result, toAsciiString(topics[topicNames[i]].publishers[j]), \" \"));\n        }\n        result = string(abi.encodePacked(result, \"\\n\"));\n\n        // Print subscribers\n        result = string(abi.encodePacked(result, \"Subscribers: \"));\n        for (uint k = 0; k < topics[topicNames[i]].subscribers.length; k++) {\n            result = string(abi.encodePacked(result, toAsciiString(topics[topicNames[i]].subscribers[k]), \" \"));\n        }\n        result = string(abi.encodePacked(result, \"\\n\\n\"));\n    }\n\n    return result;\n}\n\nfunction toAsciiString(address x) internal pure returns (string memory) {\n    bytes memory s = new bytes(40);\n    for (uint i = 0; i < 20; i++) {\n        bytes1 b = bytes1(uint8(uint(uint160(x)) / (2**(8*(19 - i)))));\n        bytes1 hi = bytes1(uint8(b) / 16);\n        bytes1 lo = bytes1(uint8(b) - 16 * uint8(hi));\n        s[2*i] = char(hi);\n        s[2*i+1] = char(lo);            \n    }\n    return string(s);\n}\n\nfunction char(bytes1 b) internal pure returns (bytes1 c) {\n    if (uint8(b) < 10) return bytes1(uint8(b) + 0x30);\n    else return bytes1(uint8(b) + 0x57);\n}\n\n}\n",
  "sourcePath": "/Users/pobeaulieu/Desktop/pubsub_blockchain_based/contracts/PubSubContract.sol",
  "compiler": {
    "name": "solc",
    "version": "0.7.1+commit.f4a555be.Emscripten.clang"
  },
  "schemaVersion": "3.4.16",
  "updatedAt": "2023-11-20T20:05:14.732Z",
  "networkType": "ethereum",
  "devdoc": {
    "kind": "dev",
    "methods": {},
    "version": 1
  },
  "userdoc": {
    "kind": "user",
    "methods": {},
    "version": 1
  }
}