{
  "contractName": "PubSubContract",
  "abi": [
    {
      "anonymous": false,
      "inputs": [
        {
          "indexed": false,
          "internalType": "string",
          "name": "topic",
          "type": "string"
        },
        {
          "indexed": false,
          "internalType": "string",
          "name": "message",
          "type": "string"
        },
        {
          "indexed": false,
          "internalType": "address",
          "name": "subscriber",
          "type": "address"
        }
      ],
      "name": "MessageReceived",
      "type": "event"
    },
    {
      "inputs": [
        {
          "internalType": "uint256",
          "name": "",
          "type": "uint256"
        }
      ],
      "name": "topicNames",
      "outputs": [
        {
          "internalType": "string",
          "name": "",
          "type": "string"
        }
      ],
      "stateMutability": "view",
      "type": "function",
      "constant": true
    },
    {
      "inputs": [
        {
          "internalType": "string",
          "name": "",
          "type": "string"
        }
      ],
      "name": "topics",
      "outputs": [
        {
          "internalType": "string",
          "name": "name",
          "type": "string"
        }
      ],
      "stateMutability": "view",
      "type": "function",
      "constant": true
    },
    {
      "inputs": [
        {
          "internalType": "string",
          "name": "topicName",
          "type": "string"
        }
      ],
      "name": "advertise",
      "outputs": [],
      "stateMutability": "nonpayable",
      "type": "function"
    },
    {
      "inputs": [
        {
          "internalType": "string",
          "name": "topicName",
          "type": "string"
        }
      ],
      "name": "subscribe",
      "outputs": [],
      "stateMutability": "payable",
      "type": "function",
      "payable": true
    },
    {
      "inputs": [
        {
          "internalType": "string",
          "name": "topicName",
          "type": "string"
        },
        {
          "internalType": "string",
          "name": "message",
          "type": "string"
        }
      ],
      "name": "publish",
      "outputs": [],
      "stateMutability": "nonpayable",
      "type": "function"
    },
    {
      "inputs": [
        {
          "internalType": "string",
          "name": "topicName",
          "type": "string"
        }
      ],
      "name": "unadvertise",
      "outputs": [],
      "stateMutability": "nonpayable",
      "type": "function"
    },
    {
      "inputs": [
        {
          "internalType": "string",
          "name": "topicName",
          "type": "string"
        }
      ],
      "name": "unsubscribe",
      "outputs": [],
      "stateMutability": "nonpayable",
      "type": "function"
    },
    {
      "inputs": [],
      "name": "printAllTopics",
      "outputs": [
        {
          "internalType": "string",
          "name": "",
          "type": "string"
        }
      ],
      "stateMutability": "view",
      "type": "function",
      "constant": true
    }
  ],
  "bytecode": "0x608060405234801561001057600080fd5b50612e6f806100206000396000f3fe60806040526004361061007b5760003560e01c8063719e9cca1161004e578063719e9cca1461035b578063b733709814610423578063c163bba7146104d7578063f75c6c72146106365761007b565b806339d6f2b31461008057806347cc5f9a14610148578063507e78881461021057806360e7c934146102cb575b600080fd5b34801561008c57600080fd5b50610146600480360360208110156100a357600080fd5b81019080803590602001906401000000008111156100c057600080fd5b8201836020820111156100d257600080fd5b803590602001918460018302840111640100000000831117156100f457600080fd5b91908080601f016020809104026020016040519081016040528093929190818152602001838380828437600081840152601f19601f820116905080830192505050505050509192919290505050610777565b005b34801561015457600080fd5b5061020e6004803603602081101561016b57600080fd5b810190808035906020019064010000000081111561018857600080fd5b82018360208201111561019a57600080fd5b803590602001918460018302840111640100000000831117156101bc57600080fd5b91908080601f016020809104026020016040519081016040528093929190818152602001838380828437600081840152601f19601f82011690508083019250505050505050919291929050505061098c565b005b6102c96004803603602081101561022657600080fd5b810190808035906020019064010000000081111561024357600080fd5b82018360208201111561025557600080fd5b8035906020019184600183028401116401000000008311171561027757600080fd5b91908080601f016020809104026020016040519081016040528093929190818152602001838380828437600081840152601f19601f820116905080830192505050505050509192919290505050610df6565b005b3480156102d757600080fd5b506102e061106e565b6040518080602001828103825283818151815260200191508051906020019080838360005b83811015610320578082015181840152602081019050610305565b50505050905090810190601f16801561034d5780820380516001836020036101000a031916815260200191505b509250505060405180910390f35b34801561036757600080fd5b506104216004803603602081101561037e57600080fd5b810190808035906020019064010000000081111561039b57600080fd5b8201836020820111156103ad57600080fd5b803590602001918460018302840111640100000000831117156103cf57600080fd5b91908080601f016020809104026020016040519081016040528093929190818152602001838380828437600081840152601f19601f820116905080830192505050505050509192919290505050611b1d565b005b34801561042f57600080fd5b5061045c6004803603602081101561044657600080fd5b8101908080359060200190929190505050611c8c565b6040518080602001828103825283818151815260200191508051906020019080838360005b8381101561049c578082015181840152602081019050610481565b50505050905090810190601f1680156104c95780820380516001836020036101000a031916815260200191505b509250505060405180910390f35b3480156104e357600080fd5b50610634600480360360408110156104fa57600080fd5b810190808035906020019064010000000081111561051757600080fd5b82018360208201111561052957600080fd5b8035906020019184600183028401116401000000008311171561054b57600080fd5b91908080601f016020809104026020016040519081016040528093929190818152602001838380828437600081840152601f19601f820116905080830192505050505050509192919290803590602001906401000000008111156105ae57600080fd5b8201836020820111156105c057600080fd5b803590602001918460018302840111640100000000831117156105e257600080fd5b91908080601f016020809104026020016040519081016040528093929190818152602001838380828437600081840152601f19601f820116905080830192505050505050509192919290505050611d45565b005b34801561064257600080fd5b506106fc6004803603602081101561065957600080fd5b810190808035906020019064010000000081111561067657600080fd5b82018360208201111561068857600080fd5b803590602001918460018302840111640100000000831117156106aa57600080fd5b91908080601f016020809104026020016040519081016040528093929190818152602001838380828437600081840152601f19601f820116905080830192505050505050509192919290505050612440565b6040518080602001828103825283818151815260200191508051906020019080838360005b8381101561073c578082015181840152602081019050610721565b50505050905090810190601f1680156107695780820380516001836020036101000a031916815260200191505b509250505060405180910390f35b6107808161250c565b61084257806000826040518082805190602001908083835b602083106107bb5780518252602082019150602081019050602083039250610798565b6001836020036101000a03801982511681845116808217855250505050505090500191505090815260200160405180910390206000019080519060200190610804929190612d9c565b50600181908060018154018082558091505060019003906000526020600020016000909190919091509080519060200190610840929190612d9c565b505b6108b76000826040518082805190602001908083835b6020831061087b5780518252602082019150602081019050602083039250610858565b6001836020036101000a0380198251168184511680821785525050505050509050019150509081526020016040518091039020600201336126be565b610989576000816040518082805190602001908083835b602083106108f157805182526020820191506020810190506020830392506108ce565b6001836020036101000a0380198251168184511680821785525050505050509050019150509081526020016040518091039020600201339080600181540180825580915050600190039060005260206000200160009091909190916101000a81548173ffffffffffffffffffffffffffffffffffffffff021916908373ffffffffffffffffffffffffffffffffffffffff1602179055505b50565b6109958161250c565b610a07576040517f08c379a00000000000000000000000000000000000000000000000000000000081526004018080602001828103825260148152602001807f546f70696320646f6573206e6f7420657869737400000000000000000000000081525060200191505060405180910390fd5b610a7c6000826040518082805190602001908083835b60208310610a405780518252602082019150602081019050602083039250610a1d565b6001836020036101000a0380198251168184511680821785525050505050509050019150509081526020016040518091039020600301336126be565b610aee576040517f08c379a000000000000000000000000000000000000000000000000000000000815260040180806020018281038252601c8152602001807f4e6f74207375627363726962656420746f207468697320746f7069630000000081525060200191505060405180910390fd5b600080826040518082805190602001908083835b60208310610b255780518252602082019150602081019050602083039250610b02565b6001836020036101000a038019825116818451168082178552505050505050905001915050908152602001604051809103902060050160003373ffffffffffffffffffffffffffffffffffffffff1673ffffffffffffffffffffffffffffffffffffffff1681526020019081526020016000205490506000811115610bec573373ffffffffffffffffffffffffffffffffffffffff166108fc829081150290604051600060405180830381858888f19350505050158015610bea573d6000803e3d6000fd5b505b60005b6000836040518082805190602001908083835b60208310610c255780518252602082019150602081019050602083039250610c02565b6001836020036101000a038019825116818451168082178552505050505050905001915050908152602001604051809103902060030180549050811015610df1573373ffffffffffffffffffffffffffffffffffffffff166000846040518082805190602001908083835b60208310610cb35780518252602082019150602081019050602083039250610c90565b6001836020036101000a03801982511681845116808217855250505050505090500191505090815260200160405180910390206003018281548110610cf457fe5b9060005260206000200160009054906101000a900473ffffffffffffffffffffffffffffffffffffffff1673ffffffffffffffffffffffffffffffffffffffff161415610de4576000836040518082805190602001908083835b60208310610d715780518252602082019150602081019050602083039250610d4e565b6001836020036101000a03801982511681845116808217855250505050505090500191505090815260200160405180910390206003018181548110610db257fe5b9060005260206000200160006101000a81549073ffffffffffffffffffffffffffffffffffffffff0219169055610df1565b8080600101915050610bef565b505050565b60003411610e6c576040517f08c379a00000000000000000000000000000000000000000000000000000000081526004018080602001828103825260188152602001807f4465706f736974206d75737420626520706f736974697665000000000000000081525060200191505060405180910390fd5b610e758161250c565b610ee7576040517f08c379a00000000000000000000000000000000000000000000000000000000081526004018080602001828103825260148152602001807f546f70696320646f6573206e6f7420657869737400000000000000000000000081525060200191505060405180910390fd5b6000816040518082805190602001908083835b60208310610f1d5780518252602082019150602081019050602083039250610efa565b6001836020036101000a0380198251168184511680821785525050505050509050019150509081526020016040518091039020600301339080600181540180825580915050600190039060005260206000200160009091909190916101000a81548173ffffffffffffffffffffffffffffffffffffffff021916908373ffffffffffffffffffffffffffffffffffffffff160217905550346000826040518082805190602001908083835b60208310610feb5780518252602082019150602081019050602083039250610fc8565b6001836020036101000a038019825116818451168082178552505050505050905001915050908152602001604051809103902060050160003373ffffffffffffffffffffffffffffffffffffffff1673ffffffffffffffffffffffffffffffffffffffff1681526020019081526020016000206000828254019250508190555050565b60608060005b600180549050811015611b15578160006001838154811061109157fe5b9060005260206000200160405180828054600181600116156101000203166002900480156110f65780601f106110d45761010080835404028352918201916110f6565b820191906000526020600020905b8154815290600101906020018083116110e2575b505091505090815260200160405180910390206000016040516020018083805190602001908083835b60208310611142578051825260208201915060208101905060208303925061111f565b6001836020036101000a038019825116818451168082178552505050505050905001807f546f7069633a2000000000000000000000000000000000000000000000000000815250600701828054600181600116156101000203166002900480156111e35780601f106111c15761010080835404028352918201916111e3565b820191906000526020600020905b8154815290600101906020018083116111cf575b5050807f0a00000000000000000000000000000000000000000000000000000000000000815250600101925050506040516020818303038152906040529150816040516020018082805190602001908083835b602083106112595780518252602082019150602081019050602083039250611236565b6001836020036101000a038019825116818451168082178552505050505050905001807f5075626c6973686572733a200000000000000000000000000000000000000000815250600c01915050604051602081830303815290604052915060005b6000600183815481106112c957fe5b90600052602060002001604051808280546001816001161561010002031660029004801561132e5780601f1061130c57610100808354040283529182019161132e565b820191906000526020600020905b81548152906001019060200180831161131a575b50509150509081526020016040518091039020600201805490508110156115ff57600073ffffffffffffffffffffffffffffffffffffffff1660006001848154811061137657fe5b9060005260206000200160405180828054600181600116156101000203166002900480156113db5780601f106113b95761010080835404028352918201916113db565b820191906000526020600020905b8154815290600101906020018083116113c7575b5050915050908152602001604051809103902060020182815481106113fc57fe5b9060005260206000200160009054906101000a900473ffffffffffffffffffffffffffffffffffffffff1673ffffffffffffffffffffffffffffffffffffffff16146115f2578261150b60006001858154811061145557fe5b9060005260206000200160405180828054600181600116156101000203166002900480156114ba5780601f106114985761010080835404028352918201916114ba565b820191906000526020600020905b8154815290600101906020018083116114a6575b5050915050908152602001604051809103902060020183815481106114db57fe5b9060005260206000200160009054906101000a900473ffffffffffffffffffffffffffffffffffffffff1661275f565b6040516020018083805190602001908083835b60208310611541578051825260208201915060208101905060208303925061151e565b6001836020036101000a03801982511681845116808217855250505050505090500182805190602001908083835b60208310611592578051825260208201915060208101905060208303925061156f565b6001836020036101000a038019825116818451168082178552505050505050905001807f20000000000000000000000000000000000000000000000000000000000000008152506001019250505060405160208183030381529060405292505b80806001019150506112ba565b50816040516020018082805190602001908083835b602083106116375780518252602082019150602081019050602083039250611614565b6001836020036101000a038019825116818451168082178552505050505050905001807f0a000000000000000000000000000000000000000000000000000000000000008152506001019150506040516020818303038152906040529150816040516020018082805190602001908083835b602083106116cc57805182526020820191506020810190506020830392506116a9565b6001836020036101000a038019825116818451168082178552505050505050905001807f53756273637269626572733a2000000000000000000000000000000000000000815250600d01915050604051602081830303815290604052915060005b60006001838154811061173c57fe5b9060005260206000200160405180828054600181600116156101000203166002900480156117a15780601f1061177f5761010080835404028352918201916117a1565b820191906000526020600020905b81548152906001019060200180831161178d575b5050915050908152602001604051809103902060030180549050811015611a7257600073ffffffffffffffffffffffffffffffffffffffff166000600184815481106117e957fe5b90600052602060002001604051808280546001816001161561010002031660029004801561184e5780601f1061182c57610100808354040283529182019161184e565b820191906000526020600020905b81548152906001019060200180831161183a575b50509150509081526020016040518091039020600301828154811061186f57fe5b9060005260206000200160009054906101000a900473ffffffffffffffffffffffffffffffffffffffff1673ffffffffffffffffffffffffffffffffffffffff1614611a65578261197e6000600185815481106118c857fe5b90600052602060002001604051808280546001816001161561010002031660029004801561192d5780601f1061190b57610100808354040283529182019161192d565b820191906000526020600020905b815481529060010190602001808311611919575b50509150509081526020016040518091039020600301838154811061194e57fe5b9060005260206000200160009054906101000a900473ffffffffffffffffffffffffffffffffffffffff1661275f565b6040516020018083805190602001908083835b602083106119b45780518252602082019150602081019050602083039250611991565b6001836020036101000a03801982511681845116808217855250505050505090500182805190602001908083835b60208310611a0557805182526020820191506020810190506020830392506119e2565b6001836020036101000a038019825116818451168082178552505050505050905001807f20000000000000000000000000000000000000000000000000000000000000008152506001019250505060405160208183030381529060405292505b808060010191505061172d565b50816040516020018082805190602001908083835b60208310611aaa5780518252602082019150602081019050602083039250611a87565b6001836020036101000a038019825116818451168082178552505050505050905001807f0a0a00000000000000000000000000000000000000000000000000000000000081525060020191505060405160208183030381529060405291508080600101915050611074565b508091505090565b60005b6000826040518082805190602001908083835b60208310611b565780518252602082019150602081019050602083039250611b33565b6001836020036101000a038019825116818451168082178552505050505050905001915050908152602001604051809103902060020180549050811015611c88573373ffffffffffffffffffffffffffffffffffffffff166000836040518082805190602001908083835b60208310611be45780518252602082019150602081019050602083039250611bc1565b6001836020036101000a03801982511681845116808217855250505050505090500191505090815260200160405180910390206002018281548110611c2557fe5b9060005260206000200160009054906101000a900473ffffffffffffffffffffffffffffffffffffffff1673ffffffffffffffffffffffffffffffffffffffff161415611c7b57611c7682336128c2565b611c88565b8080600101915050611b20565b5050565b60018181548110611c9957fe5b906000526020600020016000915090508054600181600116156101000203166002900480601f016020809104026020016040519081016040528092919081815260200182805460018160011615610100020316600290048015611d3d5780601f10611d1257610100808354040283529160200191611d3d565b820191906000526020600020905b815481529060010190602001808311611d2057829003601f168201915b505050505081565b611dba6000836040518082805190602001908083835b60208310611d7e5780518252602082019150602081019050602083039250611d5b565b6001836020036101000a0380198251168184511680821785525050505050509050019150509081526020016040518091039020600201336126be565b611e2c576040517f08c379a00000000000000000000000000000000000000000000000000000000081526004018080602001828103825260198152602001807f4e6f7420617574686f72697a656420746f207075626c6973680000000000000081525060200191505060405180910390fd5b6000826040518082805190602001908083835b60208310611e625780518252602082019150602081019050602083039250611e3f565b6001836020036101000a038019825116818451168082178552505050505050905001915050908152602001604051809103902060010181908060018154018082558091505060019003906000526020600020016000909190919091509080519060200190611ed1929190612d9c565b5060005b6000836040518082805190602001908083835b60208310611f0b5780518252602082019150602081019050602083039250611ee8565b6001836020036101000a03801982511681845116808217855250505050505090500191505090815260200160405180910390206003018054905081101561243b57600080846040518082805190602001908083835b60208310611f835780518252602082019150602081019050602083039250611f60565b6001836020036101000a03801982511681845116808217855250505050505090500191505090815260200160405180910390206003018281548110611fc457fe5b9060005260206000200160009054906101000a900473ffffffffffffffffffffffffffffffffffffffff1690506611c37937e080006000856040518082805190602001908083835b6020831061202f578051825260208201915060208101905060208303925061200c565b6001836020036101000a038019825116818451168082178552505050505050905001915050908152602001604051809103902060050160008373ffffffffffffffffffffffffffffffffffffffff1673ffffffffffffffffffffffffffffffffffffffff1681526020019081526020016000205410612371576611c37937e080006000856040518082805190602001908083835b602083106120e657805182526020820191506020810190506020830392506120c3565b6001836020036101000a038019825116818451168082178552505050505050905001915050908152602001604051809103902060050160008373ffffffffffffffffffffffffffffffffffffffff1673ffffffffffffffffffffffffffffffffffffffff168152602001908152602001600020600082825403925050819055506000846040518082805190602001908083835b6020831061219c5780518252602082019150602081019050602083039250612179565b6001836020036101000a038019825116818451168082178552505050505050905001915050908152602001604051809103902060040160008273ffffffffffffffffffffffffffffffffffffffff1673ffffffffffffffffffffffffffffffffffffffff16815260200190815260200160002083908060018154018082558091505060019003906000526020600020016000909190919091509080519060200190612248929190612d9c565b507f1d8ccc9f2d29e384e86bdd5dc21dbcdec3d6c5792eb6db7a465be828e0b0ff098484836040518080602001806020018473ffffffffffffffffffffffffffffffffffffffff168152602001838103835286818151815260200191508051906020019080838360005b838110156122cd5780820151818401526020810190506122b2565b50505050905090810190601f1680156122fa5780820380516001836020036101000a031916815260200191505b50838103825285818151815260200191508051906020019080838360005b83811015612333578082015181840152602081019050612318565b50505050905090810190601f1680156123605780820380516001836020036101000a031916815260200191505b509550505050505060405180910390a15b600080856040518082805190602001908083835b602083106123a85780518252602082019150602081019050602083039250612385565b6001836020036101000a038019825116818451168082178552505050505050905001915050908152602001604051809103902060050160008373ffffffffffffffffffffffffffffffffffffffff1673ffffffffffffffffffffffffffffffffffffffff16815260200190815260200160002054141561242d5761242c84826128c2565b5b508080600101915050611ed5565b505050565b600081805160208101820180518482526020830160208501208183528095505050505050600091509050806000018054600181600116156101000203166002900480601f0160208091040260200160405190810160405280929190818152602001828054600181600116156101000203166002900480156125025780601f106124d757610100808354040283529160200191612502565b820191906000526020600020905b8154815290600101906020018083116124e557829003601f168201915b5050505050905081565b600080600090505b6001805490508110156126b357826040516020018082805190602001908083835b602083106125585780518252602082019150602081019050602083039250612535565b6001836020036101000a038019825116818451168082178552505050505050905001915050604051602081830303815290604052805190602001206000600183815481106125a257fe5b9060005260206000200160405180828054600181600116156101000203166002900480156126075780601f106125e5576101008083540402835291820191612607565b820191906000526020600020905b8154815290600101906020018083116125f3575b50509150509081526020016040518091039020600001604051602001808280546001816001161561010002031660029004801561267b5780601f1061265957610100808354040283529182019161267b565b820191906000526020600020905b815481529060010190602001808311612667575b50509150506040516020818303038152906040528051906020012014156126a65760019150506126b9565b8080600101915050612514565b50600090505b919050565b600080600090505b8380549050811015612753578273ffffffffffffffffffffffffffffffffffffffff168482815481106126f557fe5b9060005260206000200160009054906101000a900473ffffffffffffffffffffffffffffffffffffffff1673ffffffffffffffffffffffffffffffffffffffff161415612746576001915050612759565b80806001019150506126c6565b50600090505b92915050565b606080602867ffffffffffffffff8111801561277a57600080fd5b506040519080825280601f01601f1916602001820160405280156127ad5781602001600182028036833780820191505090505b50905060005b60148110156128b85760008160130360080260020a8573ffffffffffffffffffffffffffffffffffffffff16816127e657fe5b0460f81b9050600060108260f81c60ff16816127fe57fe5b0460f81b905060008160f81c6010028360f81c0360f81b905061282082612d68565b85856002028151811061282f57fe5b60200101907effffffffffffffffffffffffffffffffffffffffffffffffffffffffffffff1916908160001a90535061286781612d68565b85600186600202018151811061287957fe5b60200101907effffffffffffffffffffffffffffffffffffffffffffffffffffffffffffff1916908160001a90535050505080806001019150506127b3565b5080915050919050565b60005b6000836040518082805190602001908083835b602083106128fb57805182526020820191506020810190506020830392506128d8565b6001836020036101000a038019825116818451168082178552505050505050905001915050908152602001604051809103902060030180549050811015612d63578173ffffffffffffffffffffffffffffffffffffffff166000846040518082805190602001908083835b602083106129895780518252602082019150602081019050602083039250612966565b6001836020036101000a038019825116818451168082178552505050505050905001915050908152602001604051809103902060030182815481106129ca57fe5b9060005260206000200160009054906101000a900473ffffffffffffffffffffffffffffffffffffffff1673ffffffffffffffffffffffffffffffffffffffff161415612d56576000836040518082805190602001908083835b60208310612a475780518252602082019150602081019050602083039250612a24565b6001836020036101000a03801982511681845116808217855250505050505090500191505090815260200160405180910390206003018181548110612a8857fe5b9060005260206000200160006101000a81549073ffffffffffffffffffffffffffffffffffffffff021916905560008190505b60016000856040518082805190602001908083835b60208310612af35780518252602082019150602081019050602083039250612ad0565b6001836020036101000a03801982511681845116808217855250505050505090500191505090815260200160405180910390206003018054905003811015612ca6576000846040518082805190602001908083835b60208310612b6b5780518252602082019150602081019050602083039250612b48565b6001836020036101000a03801982511681845116808217855250505050505090500191505090815260200160405180910390206003016001820181548110612baf57fe5b9060005260206000200160009054906101000a900473ffffffffffffffffffffffffffffffffffffffff166000856040518082805190602001908083835b60208310612c105780518252602082019150602081019050602083039250612bed565b6001836020036101000a03801982511681845116808217855250505050505090500191505090815260200160405180910390206003018281548110612c5157fe5b9060005260206000200160006101000a81548173ffffffffffffffffffffffffffffffffffffffff021916908373ffffffffffffffffffffffffffffffffffffffff1602179055508080600101915050612abb565b506000836040518082805190602001908083835b60208310612cdd5780518252602082019150602081019050602083039250612cba565b6001836020036101000a0380198251168184511680821785525050505050509050019150509081526020016040518091039020600301805480612d1c57fe5b6001900381819060005260206000200160006101000a81549073ffffffffffffffffffffffffffffffffffffffff02191690559055612d63565b80806001019150506128c5565b505050565b6000600a8260f81c60ff161015612d8a5760308260f81c0160f81b9050612d97565b60578260f81c0160f81b90505b919050565b828054600181600116156101000203166002900490600052602060002090601f016020900481019282601f10612ddd57805160ff1916838001178555612e0b565b82800160010185558215612e0b579182015b82811115612e0a578251825591602001919060010190612def565b5b509050612e189190612e1c565b5090565b5b80821115612e35576000816000905550600101612e1d565b509056fea2646970667358221220d73d58e0910bf157d01cebcd50cbfeb1b3085a93a62aec37002dd0d88859f2d364736f6c63430007010033",
  "immutableReferences": {},
  "source": "pragma solidity >=0.7.0 <0.9.0;\n\ncontract PubSubContract {\n    struct Topic {\n        string name;\n        string[] messages;\n        address[] publishers;\n        address[] subscribers;\n        mapping(address => string[]) subscriberToMessage;\n        mapping(address => uint) subscriberToBalance;\n    }\n\n    mapping(string => Topic) public topics;\n    string[] public topicNames;\n\n    event MessageReceived(string topic, string message, address subscriber);\n\n    // Modifier to require a specific amount of Wei\n    modifier requirePayment() {\n        require(msg.value == 5400000000000000, \"Sent amount must be 0.0054 ether\");\n        _;\n    }\n\n    modifier requireDeposit() {\n        require(msg.value > 0 ether, \"Deposit must be positive\");\n        _;\n    }\n\n    function advertise(string memory topicName) public {\n        if (!topicExists(topicName)) {\n            topics[topicName].name = topicName;\n            topicNames.push(topicName);\n        } \n\n        if (!contains(topics[topicName].publishers, msg.sender)) {\n            topics[topicName].publishers.push(msg.sender);\n        }\n    }\n\n\n    function subscribe(string memory topicName) public payable requireDeposit{\n        require(topicExists(topicName), \"Topic does not exist\");\n        topics[topicName].subscribers.push(msg.sender);\n        topics[topicName].subscriberToBalance[msg.sender] += msg.value;\n    }\n\n    function publish(string memory topicName, string memory message) public {\n        require(contains(topics[topicName].publishers, msg.sender), \"Not authorized to publish\");\n        topics[topicName].messages.push(message);\n\n        for (uint i = 0; i < topics[topicName].subscribers.length; i++) {\n            address subscriber = topics[topicName].subscribers[i];\n            if (topics[topicName].subscriberToBalance[subscriber] >= 0.005 ether) {\n                topics[topicName].subscriberToBalance[subscriber] -= 0.005 ether;\n                topics[topicName].subscriberToMessage[subscriber].push(message);\n\n                emit MessageReceived(topicName, message, subscriber);\n            } \n\n            // Check if the balance is now zero and remove the subscriber\n            if (topics[topicName].subscriberToBalance[subscriber] == 0) {\n                // Remove subscriber from the array\n                removeSubscriber(topicName, subscriber);\n            }\n        }\n    }\n\n    // Helper function to remove a subscriber from the array\n    function removeSubscriber(string memory topicName, address subscriber) internal {\n        for (uint i = 0; i < topics[topicName].subscribers.length; i++) {\n            if (topics[topicName].subscribers[i] == subscriber) {\n                // Remove subscriber from the array\n                delete topics[topicName].subscribers[i];\n\n                // Shift the remaining elements to fill the gap\n                for (uint j = i; j < topics[topicName].subscribers.length - 1; j++) {\n                    topics[topicName].subscribers[j] = topics[topicName].subscribers[j + 1];\n                }\n\n                // Decrease the length of the array\n                topics[topicName].subscribers.pop();\n\n                break;\n            }\n        }\n    }\n    function unadvertise(string memory topicName) public {\n        for (uint i = 0; i < topics[topicName].publishers.length; i++) {\n            if (topics[topicName].publishers[i] == msg.sender) {\n                removeSubscriber(topicName, msg.sender);\n                break;\n            }\n        }\n    }\n\n    function unsubscribe(string memory topicName) public {\n        require(topicExists(topicName), \"Topic does not exist\");\n        require(contains(topics[topicName].subscribers, msg.sender), \"Not subscribed to this topic\");\n\n        // Give back balance to subscriber\n        uint remainingBalance = topics[topicName].subscriberToBalance[msg.sender];\n        if (remainingBalance > 0) {\n            payable(msg.sender).transfer(remainingBalance);\n        }\n\n        // Remove subscriber from the list\n        for (uint i = 0; i < topics[topicName].subscribers.length; i++) {\n            if (topics[topicName].subscribers[i] == msg.sender) {\n                delete topics[topicName].subscribers[i];\n                break;\n            }\n        }\n    }\n\n    // Helper function to check if an address is in an array\n    function contains(address[] storage array, address element) internal view returns (bool) {\n        for (uint i = 0; i < array.length; i++) {\n            if (array[i] == element) {\n                return true;\n            }\n        }\n        return false;\n    }\n\n    function topicExists(string memory topicName) internal view returns (bool) {\n        for (uint i = 0; i < topicNames.length; i++) {\n            if (keccak256(abi.encodePacked(topics[topicNames[i]].name)) == keccak256(abi.encodePacked(topicName))) {\n                return true;\n            }\n        }\n        return false;\n    }\n\n    // Add this function to your contract\n    function printAllTopics() public view returns (string memory) {\n        string memory result;\n\n        for (uint i = 0; i < topicNames.length; i++) {\n            result = string(abi.encodePacked(result, \"Topic: \", topics[topicNames[i]].name, \"\\n\"));\n\n            // Print publishers\n            result = string(abi.encodePacked(result, \"Publishers: \"));\n\n            for (uint j = 0; j < topics[topicNames[i]].publishers.length; j++) {\n                if (topics[topicNames[i]].publishers[j] != address(0)) {\n                    result = string(abi.encodePacked(result, toAsciiString(topics[topicNames[i]].publishers[j]), \" \"));\n                }\n            }\n            result = string(abi.encodePacked(result, \"\\n\"));\n\n            // Print subscribers\n            result = string(abi.encodePacked(result, \"Subscribers: \"));\n            for (uint k = 0; k < topics[topicNames[i]].subscribers.length; k++) {\n                if (topics[topicNames[i]].subscribers[k] != address(0)) {\n                    result = string(abi.encodePacked(result, toAsciiString(topics[topicNames[i]].subscribers[k]), \" \"));\n                }\n            }\n            result = string(abi.encodePacked(result, \"\\n\\n\"));\n        }\n\n        return result;\n    }\n\n    function toAsciiString(address x) internal pure returns (string memory) {\n        bytes memory s = new bytes(40);\n        for (uint i = 0; i < 20; i++) {\n            bytes1 b = bytes1(uint8(uint(uint160(x)) / (2**(8*(19 - i)))));\n            bytes1 hi = bytes1(uint8(b) / 16);\n            bytes1 lo = bytes1(uint8(b) - 16 * uint8(hi));\n            s[2*i] = char(hi);\n            s[2*i+1] = char(lo);            \n        }\n        return string(s);\n    }\n\n    function char(bytes1 b) internal pure returns (bytes1 c) {\n        if (uint8(b) < 10) return bytes1(uint8(b) + 0x30);\n        else return bytes1(uint8(b) + 0x57);\n    }\n\n}\n",
  "sourcePath": "/Users/pobeaulieu/Desktop/pubsub_blockchain_based/contracts/PubSubContract.sol",
  "compiler": {
    "name": "solc",
    "version": "0.7.1+commit.f4a555be.Emscripten.clang"
  },
  "schemaVersion": "3.4.16",
  "updatedAt": "2023-11-20T21:42:21.079Z",
  "networkType": "ethereum",
  "devdoc": {
    "kind": "dev",
    "methods": {},
    "version": 1
  },
  "userdoc": {
    "kind": "user",
    "methods": {},
    "version": 1
  }
}