{
  "contractName": "PubSubContract",
  "abi": [
    {
      "anonymous": false,
      "inputs": [
        {
          "indexed": false,
          "internalType": "string",
          "name": "topic",
          "type": "string"
        },
        {
          "indexed": false,
          "internalType": "string",
          "name": "message",
          "type": "string"
        },
        {
          "indexed": false,
          "internalType": "address",
          "name": "subscriber",
          "type": "address"
        }
      ],
      "name": "MessageReceived",
      "type": "event"
    },
    {
      "inputs": [
        {
          "internalType": "uint256",
          "name": "",
          "type": "uint256"
        }
      ],
      "name": "topicNames",
      "outputs": [
        {
          "internalType": "string",
          "name": "",
          "type": "string"
        }
      ],
      "stateMutability": "view",
      "type": "function",
      "constant": true
    },
    {
      "inputs": [
        {
          "internalType": "string",
          "name": "",
          "type": "string"
        }
      ],
      "name": "topics",
      "outputs": [
        {
          "internalType": "string",
          "name": "name",
          "type": "string"
        }
      ],
      "stateMutability": "view",
      "type": "function",
      "constant": true
    },
    {
      "inputs": [
        {
          "internalType": "string",
          "name": "topicName",
          "type": "string"
        }
      ],
      "name": "advertise",
      "outputs": [],
      "stateMutability": "nonpayable",
      "type": "function"
    },
    {
      "inputs": [
        {
          "internalType": "string",
          "name": "topicName",
          "type": "string"
        }
      ],
      "name": "subscribe",
      "outputs": [],
      "stateMutability": "payable",
      "type": "function",
      "payable": true
    },
    {
      "inputs": [
        {
          "internalType": "string",
          "name": "topicName",
          "type": "string"
        },
        {
          "internalType": "string",
          "name": "message",
          "type": "string"
        }
      ],
      "name": "publish",
      "outputs": [],
      "stateMutability": "nonpayable",
      "type": "function"
    },
    {
      "inputs": [
        {
          "internalType": "string",
          "name": "topicName",
          "type": "string"
        }
      ],
      "name": "unadvertise",
      "outputs": [],
      "stateMutability": "nonpayable",
      "type": "function"
    },
    {
      "inputs": [
        {
          "internalType": "string",
          "name": "topicName",
          "type": "string"
        }
      ],
      "name": "unsubscribe",
      "outputs": [],
      "stateMutability": "nonpayable",
      "type": "function"
    },
    {
      "inputs": [],
      "name": "printAllTopics",
      "outputs": [
        {
          "internalType": "string",
          "name": "",
          "type": "string"
        }
      ],
      "stateMutability": "view",
      "type": "function",
      "constant": true
    }
  ],
  "bytecode": "0x608060405234801561001057600080fd5b5061346b806100206000396000f3fe60806040526004361061007b5760003560e01c8063719e9cca1161004e578063719e9cca1461035b578063b733709814610423578063c163bba7146104d7578063f75c6c72146106365761007b565b806339d6f2b31461008057806347cc5f9a14610148578063507e78881461021057806360e7c934146102cb575b600080fd5b34801561008c57600080fd5b50610146600480360360208110156100a357600080fd5b81019080803590602001906401000000008111156100c057600080fd5b8201836020820111156100d257600080fd5b803590602001918460018302840111640100000000831117156100f457600080fd5b91908080601f016020809104026020016040519081016040528093929190818152602001838380828437600081840152601f19601f820116905080830192505050505050509192919290505050610777565b005b34801561015457600080fd5b5061020e6004803603602081101561016b57600080fd5b810190808035906020019064010000000081111561018857600080fd5b82018360208201111561019a57600080fd5b803590602001918460018302840111640100000000831117156101bc57600080fd5b91908080601f016020809104026020016040519081016040528093929190818152602001838380828437600081840152601f19601f8201169050808301925050505050505091929192905050506109fa565b005b6102c96004803603602081101561022657600080fd5b810190808035906020019064010000000081111561024357600080fd5b82018360208201111561025557600080fd5b8035906020019184600183028401116401000000008311171561027757600080fd5b91908080601f016020809104026020016040519081016040528093929190818152602001838380828437600081840152601f19601f820116905080830192505050505050509192919290505050610e64565b005b3480156102d757600080fd5b506102e06111c4565b6040518080602001828103825283818151815260200191508051906020019080838360005b83811015610320578082015181840152602081019050610305565b50505050905090810190601f16801561034d5780820380516001836020036101000a031916815260200191505b509250505060405180910390f35b34801561036757600080fd5b506104216004803603602081101561037e57600080fd5b810190808035906020019064010000000081111561039b57600080fd5b8201836020820111156103ad57600080fd5b803590602001918460018302840111640100000000831117156103cf57600080fd5b91908080601f016020809104026020016040519081016040528093929190818152602001838380828437600081840152601f19601f820116905080830192505050505050509192919290505050611c73565b005b34801561042f57600080fd5b5061045c6004803603602081101561044657600080fd5b8101908080359060200190929190505050611de2565b6040518080602001828103825283818151815260200191508051906020019080838360005b8381101561049c578082015181840152602081019050610481565b50505050905090810190601f1680156104c95780820380516001836020036101000a031916815260200191505b509250505060405180910390f35b3480156104e357600080fd5b50610634600480360360408110156104fa57600080fd5b810190808035906020019064010000000081111561051757600080fd5b82018360208201111561052957600080fd5b8035906020019184600183028401116401000000008311171561054b57600080fd5b91908080601f016020809104026020016040519081016040528093929190818152602001838380828437600081840152601f19601f820116905080830192505050505050509192919290803590602001906401000000008111156105ae57600080fd5b8201836020820111156105c057600080fd5b803590602001918460018302840111640100000000831117156105e257600080fd5b91908080601f016020809104026020016040519081016040528093929190818152602001838380828437600081840152601f19601f820116905080830192505050505050509192919290505050611e9b565b005b34801561064257600080fd5b506106fc6004803603602081101561065957600080fd5b810190808035906020019064010000000081111561067657600080fd5b82018360208201111561068857600080fd5b803590602001918460018302840111640100000000831117156106aa57600080fd5b91908080601f016020809104026020016040519081016040528093929190818152602001838380828437600081840152601f19601f820116905080830192505050505050509192919290505050612596565b6040518080602001828103825283818151815260200191508051906020019080838360005b8381101561073c578082015181840152602081019050610721565b50505050905090810190601f1680156107695780820380516001836020036101000a031916815260200191505b509250505060405180910390f35b6107ec6000826040518082805190602001908083835b602083106107b0578051825260208201915060208101905060208303925061078d565b6001836020036101000a038019825116818451168082178552505050505050905001915050908152602001604051809103902060020133612662565b1561085f576040517f08c379a000000000000000000000000000000000000000000000000000000000815260040180806020018281038252601d8152602001807f416c72656164792061647665727469736564207468697320746f70696300000081525060200191505060405180910390fd5b61086881612703565b61092a57806000826040518082805190602001908083835b602083106108a35780518252602082019150602081019050602083039250610880565b6001836020036101000a038019825116818451168082178552505050505050905001915050908152602001604051809103902060000190805190602001906108ec929190613398565b50600181908060018154018082558091505060019003906000526020600020016000909190919091509080519060200190610928929190613398565b505b6000816040518082805190602001908083835b60208310610960578051825260208201915060208101905060208303925061093d565b6001836020036101000a0380198251168184511680821785525050505050509050019150509081526020016040518091039020600201339080600181540180825580915050600190039060005260206000200160009091909190916101000a81548173ffffffffffffffffffffffffffffffffffffffff021916908373ffffffffffffffffffffffffffffffffffffffff16021790555050565b610a0381612703565b610a75576040517f08c379a00000000000000000000000000000000000000000000000000000000081526004018080602001828103825260148152602001807f546f70696320646f6573206e6f7420657869737400000000000000000000000081525060200191505060405180910390fd5b610aea6000826040518082805190602001908083835b60208310610aae5780518252602082019150602081019050602083039250610a8b565b6001836020036101000a038019825116818451168082178552505050505050905001915050908152602001604051809103902060030133612662565b610b5c576040517f08c379a000000000000000000000000000000000000000000000000000000000815260040180806020018281038252601c8152602001807f4e6f74207375627363726962656420746f207468697320746f7069630000000081525060200191505060405180910390fd5b600080826040518082805190602001908083835b60208310610b935780518252602082019150602081019050602083039250610b70565b6001836020036101000a038019825116818451168082178552505050505050905001915050908152602001604051809103902060050160003373ffffffffffffffffffffffffffffffffffffffff1673ffffffffffffffffffffffffffffffffffffffff1681526020019081526020016000205490506000811115610c5a573373ffffffffffffffffffffffffffffffffffffffff166108fc829081150290604051600060405180830381858888f19350505050158015610c58573d6000803e3d6000fd5b505b60005b6000836040518082805190602001908083835b60208310610c935780518252602082019150602081019050602083039250610c70565b6001836020036101000a038019825116818451168082178552505050505050905001915050908152602001604051809103902060030180549050811015610e5f573373ffffffffffffffffffffffffffffffffffffffff166000846040518082805190602001908083835b60208310610d215780518252602082019150602081019050602083039250610cfe565b6001836020036101000a03801982511681845116808217855250505050505090500191505090815260200160405180910390206003018281548110610d6257fe5b9060005260206000200160009054906101000a900473ffffffffffffffffffffffffffffffffffffffff1673ffffffffffffffffffffffffffffffffffffffff161415610e52576000836040518082805190602001908083835b60208310610ddf5780518252602082019150602081019050602083039250610dbc565b6001836020036101000a03801982511681845116808217855250505050505090500191505090815260200160405180910390206003018181548110610e2057fe5b9060005260206000200160006101000a81549073ffffffffffffffffffffffffffffffffffffffff0219169055610e5f565b8080600101915050610c5d565b505050565b60003411610eda576040517f08c379a00000000000000000000000000000000000000000000000000000000081526004018080602001828103825260188152602001807f4465706f736974206d75737420626520706f736974697665000000000000000081525060200191505060405180910390fd5b610ee381612703565b610f55576040517f08c379a00000000000000000000000000000000000000000000000000000000081526004018080602001828103825260148152602001807f546f70696320646f6573206e6f7420657869737400000000000000000000000081525060200191505060405180910390fd5b610fca6000826040518082805190602001908083835b60208310610f8e5780518252602082019150602081019050602083039250610f6b565b6001836020036101000a038019825116818451168082178552505050505050905001915050908152602001604051809103902060030133612662565b1561103d576040517f08c379a00000000000000000000000000000000000000000000000000000000081526004018080602001828103825260208152602001807f416c7265616479207375627363726962656420746f207468697320746f70696381525060200191505060405180910390fd5b6000816040518082805190602001908083835b602083106110735780518252602082019150602081019050602083039250611050565b6001836020036101000a0380198251168184511680821785525050505050509050019150509081526020016040518091039020600301339080600181540180825580915050600190039060005260206000200160009091909190916101000a81548173ffffffffffffffffffffffffffffffffffffffff021916908373ffffffffffffffffffffffffffffffffffffffff160217905550346000826040518082805190602001908083835b60208310611141578051825260208201915060208101905060208303925061111e565b6001836020036101000a038019825116818451168082178552505050505050905001915050908152602001604051809103902060050160003373ffffffffffffffffffffffffffffffffffffffff1673ffffffffffffffffffffffffffffffffffffffff1681526020019081526020016000206000828254019250508190555050565b60608060005b600180549050811015611c6b57816000600183815481106111e757fe5b90600052602060002001604051808280546001816001161561010002031660029004801561124c5780601f1061122a57610100808354040283529182019161124c565b820191906000526020600020905b815481529060010190602001808311611238575b505091505090815260200160405180910390206000016040516020018083805190602001908083835b602083106112985780518252602082019150602081019050602083039250611275565b6001836020036101000a038019825116818451168082178552505050505050905001807f546f7069633a2000000000000000000000000000000000000000000000000000815250600701828054600181600116156101000203166002900480156113395780601f10611317576101008083540402835291820191611339565b820191906000526020600020905b815481529060010190602001808311611325575b5050807f0a00000000000000000000000000000000000000000000000000000000000000815250600101925050506040516020818303038152906040529150816040516020018082805190602001908083835b602083106113af578051825260208201915060208101905060208303925061138c565b6001836020036101000a038019825116818451168082178552505050505050905001807f5075626c6973686572733a200000000000000000000000000000000000000000815250600c01915050604051602081830303815290604052915060005b60006001838154811061141f57fe5b9060005260206000200160405180828054600181600116156101000203166002900480156114845780601f10611462576101008083540402835291820191611484565b820191906000526020600020905b815481529060010190602001808311611470575b505091505090815260200160405180910390206002018054905081101561175557600073ffffffffffffffffffffffffffffffffffffffff166000600184815481106114cc57fe5b9060005260206000200160405180828054600181600116156101000203166002900480156115315780601f1061150f576101008083540402835291820191611531565b820191906000526020600020905b81548152906001019060200180831161151d575b50509150509081526020016040518091039020600201828154811061155257fe5b9060005260206000200160009054906101000a900473ffffffffffffffffffffffffffffffffffffffff1673ffffffffffffffffffffffffffffffffffffffff161461174857826116616000600185815481106115ab57fe5b9060005260206000200160405180828054600181600116156101000203166002900480156116105780601f106115ee576101008083540402835291820191611610565b820191906000526020600020905b8154815290600101906020018083116115fc575b50509150509081526020016040518091039020600201838154811061163157fe5b9060005260206000200160009054906101000a900473ffffffffffffffffffffffffffffffffffffffff166128b5565b6040516020018083805190602001908083835b602083106116975780518252602082019150602081019050602083039250611674565b6001836020036101000a03801982511681845116808217855250505050505090500182805190602001908083835b602083106116e857805182526020820191506020810190506020830392506116c5565b6001836020036101000a038019825116818451168082178552505050505050905001807f20000000000000000000000000000000000000000000000000000000000000008152506001019250505060405160208183030381529060405292505b8080600101915050611410565b50816040516020018082805190602001908083835b6020831061178d578051825260208201915060208101905060208303925061176a565b6001836020036101000a038019825116818451168082178552505050505050905001807f0a000000000000000000000000000000000000000000000000000000000000008152506001019150506040516020818303038152906040529150816040516020018082805190602001908083835b6020831061182257805182526020820191506020810190506020830392506117ff565b6001836020036101000a038019825116818451168082178552505050505050905001807f53756273637269626572733a2000000000000000000000000000000000000000815250600d01915050604051602081830303815290604052915060005b60006001838154811061189257fe5b9060005260206000200160405180828054600181600116156101000203166002900480156118f75780601f106118d55761010080835404028352918201916118f7565b820191906000526020600020905b8154815290600101906020018083116118e3575b5050915050908152602001604051809103902060030180549050811015611bc857600073ffffffffffffffffffffffffffffffffffffffff1660006001848154811061193f57fe5b9060005260206000200160405180828054600181600116156101000203166002900480156119a45780601f106119825761010080835404028352918201916119a4565b820191906000526020600020905b815481529060010190602001808311611990575b5050915050908152602001604051809103902060030182815481106119c557fe5b9060005260206000200160009054906101000a900473ffffffffffffffffffffffffffffffffffffffff1673ffffffffffffffffffffffffffffffffffffffff1614611bbb5782611ad4600060018581548110611a1e57fe5b906000526020600020016040518082805460018160011615610100020316600290048015611a835780601f10611a61576101008083540402835291820191611a83565b820191906000526020600020905b815481529060010190602001808311611a6f575b505091505090815260200160405180910390206003018381548110611aa457fe5b9060005260206000200160009054906101000a900473ffffffffffffffffffffffffffffffffffffffff166128b5565b6040516020018083805190602001908083835b60208310611b0a5780518252602082019150602081019050602083039250611ae7565b6001836020036101000a03801982511681845116808217855250505050505090500182805190602001908083835b60208310611b5b5780518252602082019150602081019050602083039250611b38565b6001836020036101000a038019825116818451168082178552505050505050905001807f20000000000000000000000000000000000000000000000000000000000000008152506001019250505060405160208183030381529060405292505b8080600101915050611883565b50816040516020018082805190602001908083835b60208310611c005780518252602082019150602081019050602083039250611bdd565b6001836020036101000a038019825116818451168082178552505050505050905001807f0a0a000000000000000000000000000000000000000000000000000000000000815250600201915050604051602081830303815290604052915080806001019150506111ca565b508091505090565b60005b6000826040518082805190602001908083835b60208310611cac5780518252602082019150602081019050602083039250611c89565b6001836020036101000a038019825116818451168082178552505050505050905001915050908152602001604051809103902060020180549050811015611dde573373ffffffffffffffffffffffffffffffffffffffff166000836040518082805190602001908083835b60208310611d3a5780518252602082019150602081019050602083039250611d17565b6001836020036101000a03801982511681845116808217855250505050505090500191505090815260200160405180910390206002018281548110611d7b57fe5b9060005260206000200160009054906101000a900473ffffffffffffffffffffffffffffffffffffffff1673ffffffffffffffffffffffffffffffffffffffff161415611dd157611dcc8233612a18565b611dde565b8080600101915050611c76565b5050565b60018181548110611def57fe5b906000526020600020016000915090508054600181600116156101000203166002900480601f016020809104026020016040519081016040528092919081815260200182805460018160011615610100020316600290048015611e935780601f10611e6857610100808354040283529160200191611e93565b820191906000526020600020905b815481529060010190602001808311611e7657829003601f168201915b505050505081565b611f106000836040518082805190602001908083835b60208310611ed45780518252602082019150602081019050602083039250611eb1565b6001836020036101000a038019825116818451168082178552505050505050905001915050908152602001604051809103902060020133612662565b611f82576040517f08c379a00000000000000000000000000000000000000000000000000000000081526004018080602001828103825260198152602001807f4e6f7420617574686f72697a656420746f207075626c6973680000000000000081525060200191505060405180910390fd5b6000826040518082805190602001908083835b60208310611fb85780518252602082019150602081019050602083039250611f95565b6001836020036101000a038019825116818451168082178552505050505050905001915050908152602001604051809103902060010181908060018154018082558091505060019003906000526020600020016000909190919091509080519060200190612027929190613398565b5060005b6000836040518082805190602001908083835b60208310612061578051825260208201915060208101905060208303925061203e565b6001836020036101000a03801982511681845116808217855250505050505090500191505090815260200160405180910390206003018054905081101561259157600080846040518082805190602001908083835b602083106120d957805182526020820191506020810190506020830392506120b6565b6001836020036101000a0380198251168184511680821785525050505050509050019150509081526020016040518091039020600301828154811061211a57fe5b9060005260206000200160009054906101000a900473ffffffffffffffffffffffffffffffffffffffff1690506611c37937e080006000856040518082805190602001908083835b602083106121855780518252602082019150602081019050602083039250612162565b6001836020036101000a038019825116818451168082178552505050505050905001915050908152602001604051809103902060050160008373ffffffffffffffffffffffffffffffffffffffff1673ffffffffffffffffffffffffffffffffffffffff16815260200190815260200160002054106124c7576611c37937e080006000856040518082805190602001908083835b6020831061223c5780518252602082019150602081019050602083039250612219565b6001836020036101000a038019825116818451168082178552505050505050905001915050908152602001604051809103902060050160008373ffffffffffffffffffffffffffffffffffffffff1673ffffffffffffffffffffffffffffffffffffffff168152602001908152602001600020600082825403925050819055506000846040518082805190602001908083835b602083106122f257805182526020820191506020810190506020830392506122cf565b6001836020036101000a038019825116818451168082178552505050505050905001915050908152602001604051809103902060040160008273ffffffffffffffffffffffffffffffffffffffff1673ffffffffffffffffffffffffffffffffffffffff1681526020019081526020016000208390806001815401808255809150506001900390600052602060002001600090919091909150908051906020019061239e929190613398565b507f1d8ccc9f2d29e384e86bdd5dc21dbcdec3d6c5792eb6db7a465be828e0b0ff098484836040518080602001806020018473ffffffffffffffffffffffffffffffffffffffff168152602001838103835286818151815260200191508051906020019080838360005b83811015612423578082015181840152602081019050612408565b50505050905090810190601f1680156124505780820380516001836020036101000a031916815260200191505b50838103825285818151815260200191508051906020019080838360005b8381101561248957808201518184015260208101905061246e565b50505050905090810190601f1680156124b65780820380516001836020036101000a031916815260200191505b509550505050505060405180910390a15b600080856040518082805190602001908083835b602083106124fe57805182526020820191506020810190506020830392506124db565b6001836020036101000a038019825116818451168082178552505050505050905001915050908152602001604051809103902060050160008373ffffffffffffffffffffffffffffffffffffffff1673ffffffffffffffffffffffffffffffffffffffff168152602001908152602001600020541415612583576125828482612ebe565b5b50808060010191505061202b565b505050565b600081805160208101820180518482526020830160208501208183528095505050505050600091509050806000018054600181600116156101000203166002900480601f0160208091040260200160405190810160405280929190818152602001828054600181600116156101000203166002900480156126585780601f1061262d57610100808354040283529160200191612658565b820191906000526020600020905b81548152906001019060200180831161263b57829003601f168201915b5050505050905081565b600080600090505b83805490508110156126f7578273ffffffffffffffffffffffffffffffffffffffff1684828154811061269957fe5b9060005260206000200160009054906101000a900473ffffffffffffffffffffffffffffffffffffffff1673ffffffffffffffffffffffffffffffffffffffff1614156126ea5760019150506126fd565b808060010191505061266a565b50600090505b92915050565b600080600090505b6001805490508110156128aa57826040516020018082805190602001908083835b6020831061274f578051825260208201915060208101905060208303925061272c565b6001836020036101000a0380198251168184511680821785525050505050509050019150506040516020818303038152906040528051906020012060006001838154811061279957fe5b9060005260206000200160405180828054600181600116156101000203166002900480156127fe5780601f106127dc5761010080835404028352918201916127fe565b820191906000526020600020905b8154815290600101906020018083116127ea575b5050915050908152602001604051809103902060000160405160200180828054600181600116156101000203166002900480156128725780601f10612850576101008083540402835291820191612872565b820191906000526020600020905b81548152906001019060200180831161285e575b505091505060405160208183030381529060405280519060200120141561289d5760019150506128b0565b808060010191505061270b565b50600090505b919050565b606080602867ffffffffffffffff811180156128d057600080fd5b506040519080825280601f01601f1916602001820160405280156129035781602001600182028036833780820191505090505b50905060005b6014811015612a0e5760008160130360080260020a8573ffffffffffffffffffffffffffffffffffffffff168161293c57fe5b0460f81b9050600060108260f81c60ff168161295457fe5b0460f81b905060008160f81c6010028360f81c0360f81b905061297682613364565b85856002028151811061298557fe5b60200101907effffffffffffffffffffffffffffffffffffffffffffffffffffffffffffff1916908160001a9053506129bd81613364565b8560018660020201815181106129cf57fe5b60200101907effffffffffffffffffffffffffffffffffffffffffffffffffffffffffffff1916908160001a9053505050508080600101915050612909565b5080915050919050565b60005b6000836040518082805190602001908083835b60208310612a515780518252602082019150602081019050602083039250612a2e565b6001836020036101000a038019825116818451168082178552505050505050905001915050908152602001604051809103902060020180549050811015612eb9578173ffffffffffffffffffffffffffffffffffffffff166000846040518082805190602001908083835b60208310612adf5780518252602082019150602081019050602083039250612abc565b6001836020036101000a03801982511681845116808217855250505050505090500191505090815260200160405180910390206002018281548110612b2057fe5b9060005260206000200160009054906101000a900473ffffffffffffffffffffffffffffffffffffffff1673ffffffffffffffffffffffffffffffffffffffff161415612eac576000836040518082805190602001908083835b60208310612b9d5780518252602082019150602081019050602083039250612b7a565b6001836020036101000a03801982511681845116808217855250505050505090500191505090815260200160405180910390206002018181548110612bde57fe5b9060005260206000200160006101000a81549073ffffffffffffffffffffffffffffffffffffffff021916905560008190505b60016000856040518082805190602001908083835b60208310612c495780518252602082019150602081019050602083039250612c26565b6001836020036101000a03801982511681845116808217855250505050505090500191505090815260200160405180910390206002018054905003811015612dfc576000846040518082805190602001908083835b60208310612cc15780518252602082019150602081019050602083039250612c9e565b6001836020036101000a03801982511681845116808217855250505050505090500191505090815260200160405180910390206002016001820181548110612d0557fe5b9060005260206000200160009054906101000a900473ffffffffffffffffffffffffffffffffffffffff166000856040518082805190602001908083835b60208310612d665780518252602082019150602081019050602083039250612d43565b6001836020036101000a03801982511681845116808217855250505050505090500191505090815260200160405180910390206002018281548110612da757fe5b9060005260206000200160006101000a81548173ffffffffffffffffffffffffffffffffffffffff021916908373ffffffffffffffffffffffffffffffffffffffff1602179055508080600101915050612c11565b506000836040518082805190602001908083835b60208310612e335780518252602082019150602081019050602083039250612e10565b6001836020036101000a0380198251168184511680821785525050505050509050019150509081526020016040518091039020600201805480612e7257fe5b6001900381819060005260206000200160006101000a81549073ffffffffffffffffffffffffffffffffffffffff02191690559055612eb9565b8080600101915050612a1b565b505050565b60005b6000836040518082805190602001908083835b60208310612ef75780518252602082019150602081019050602083039250612ed4565b6001836020036101000a03801982511681845116808217855250505050505090500191505090815260200160405180910390206003018054905081101561335f578173ffffffffffffffffffffffffffffffffffffffff166000846040518082805190602001908083835b60208310612f855780518252602082019150602081019050602083039250612f62565b6001836020036101000a03801982511681845116808217855250505050505090500191505090815260200160405180910390206003018281548110612fc657fe5b9060005260206000200160009054906101000a900473ffffffffffffffffffffffffffffffffffffffff1673ffffffffffffffffffffffffffffffffffffffff161415613352576000836040518082805190602001908083835b602083106130435780518252602082019150602081019050602083039250613020565b6001836020036101000a0380198251168184511680821785525050505050509050019150509081526020016040518091039020600301818154811061308457fe5b9060005260206000200160006101000a81549073ffffffffffffffffffffffffffffffffffffffff021916905560008190505b60016000856040518082805190602001908083835b602083106130ef57805182526020820191506020810190506020830392506130cc565b6001836020036101000a038019825116818451168082178552505050505050905001915050908152602001604051809103902060030180549050038110156132a2576000846040518082805190602001908083835b602083106131675780518252602082019150602081019050602083039250613144565b6001836020036101000a038019825116818451168082178552505050505050905001915050908152602001604051809103902060030160018201815481106131ab57fe5b9060005260206000200160009054906101000a900473ffffffffffffffffffffffffffffffffffffffff166000856040518082805190602001908083835b6020831061320c57805182526020820191506020810190506020830392506131e9565b6001836020036101000a0380198251168184511680821785525050505050509050019150509081526020016040518091039020600301828154811061324d57fe5b9060005260206000200160006101000a81548173ffffffffffffffffffffffffffffffffffffffff021916908373ffffffffffffffffffffffffffffffffffffffff16021790555080806001019150506130b7565b506000836040518082805190602001908083835b602083106132d957805182526020820191506020810190506020830392506132b6565b6001836020036101000a038019825116818451168082178552505050505050905001915050908152602001604051809103902060030180548061331857fe5b6001900381819060005260206000200160006101000a81549073ffffffffffffffffffffffffffffffffffffffff0219169055905561335f565b8080600101915050612ec1565b505050565b6000600a8260f81c60ff1610156133865760308260f81c0160f81b9050613393565b60578260f81c0160f81b90505b919050565b828054600181600116156101000203166002900490600052602060002090601f016020900481019282601f106133d957805160ff1916838001178555613407565b82800160010185558215613407579182015b828111156134065782518255916020019190600101906133eb565b5b5090506134149190613418565b5090565b5b80821115613431576000816000905550600101613419565b509056fea2646970667358221220e38818c5e8ff6b32bd2bd4c970cb8b72a0c3ca06d451dfe49932e436ebe49f8864736f6c63430007010033",
  "immutableReferences": {},
  "source": "pragma solidity >=0.7.0 <0.9.0;\n\ncontract PubSubContract {\n    struct Topic {\n        string name;\n        string[] messages;\n        address[] publishers;\n        address[] subscribers;\n        mapping(address => string[]) subscriberToMessage;\n        mapping(address => uint) subscriberToBalance;\n    }\n\n    mapping(string => Topic) public topics;\n    string[] public topicNames;\n\n    event MessageReceived(string topic, string message, address subscriber);\n\n\n    modifier requireDeposit() {\n        require(msg.value > 0 ether, \"Deposit must be positive\");\n        _;\n    }\n\n    function advertise(string memory topicName) public {\n        require(!contains(topics[topicName].publishers, msg.sender), \"Already advertised this topic\");\n\n        if (!topicExists(topicName)) {\n            topics[topicName].name = topicName;\n            topicNames.push(topicName);\n        } \n\n        topics[topicName].publishers.push(msg.sender);\n    }\n\n\n    function subscribe(string memory topicName) public payable requireDeposit{\n        require(topicExists(topicName), \"Topic does not exist\");\n        require(!contains(topics[topicName].subscribers, msg.sender), \"Already subscribed to this topic\");\n\n        topics[topicName].subscribers.push(msg.sender);\n        topics[topicName].subscriberToBalance[msg.sender] += msg.value;\n    }\n\n    function publish(string memory topicName, string memory message) public {\n        require(contains(topics[topicName].publishers, msg.sender), \"Not authorized to publish\");\n        topics[topicName].messages.push(message);\n\n        for (uint i = 0; i < topics[topicName].subscribers.length; i++) {\n            address subscriber = topics[topicName].subscribers[i];\n            if (topics[topicName].subscriberToBalance[subscriber] >= 0.005 ether) {\n                topics[topicName].subscriberToBalance[subscriber] -= 0.005 ether;\n                topics[topicName].subscriberToMessage[subscriber].push(message);\n\n                emit MessageReceived(topicName, message, subscriber);\n            } \n\n            // Check if the balance is now zero and remove the subscriber\n            if (topics[topicName].subscriberToBalance[subscriber] == 0) {\n                // Remove subscriber from the array\n                removeSubscriber(topicName, subscriber);\n            }\n        }\n    }\n\n    // Helper function to remove a subscriber from the array\n    function removeSubscriber(string memory topicName, address subscriber) internal {\n        for (uint i = 0; i < topics[topicName].subscribers.length; i++) {\n            if (topics[topicName].subscribers[i] == subscriber) {\n                // Remove subscriber from the array\n                delete topics[topicName].subscribers[i];\n\n                // Shift the remaining elements to fill the gap\n                for (uint j = i; j < topics[topicName].subscribers.length - 1; j++) {\n                    topics[topicName].subscribers[j] = topics[topicName].subscribers[j + 1];\n                }\n\n                // Decrease the length of the array\n                topics[topicName].subscribers.pop();\n\n                break;\n            }\n        }\n    }\n\n    // Helper function to remove a subscriber from the array\n    function removePublisher(string memory topicName, address publisher) internal {\n        for (uint i = 0; i < topics[topicName].publishers.length; i++) {\n            if (topics[topicName].publishers[i] == publisher) {\n                // Remove subscriber from the array\n                delete topics[topicName].publishers[i];\n\n                // Shift the remaining elements to fill the gap\n                for (uint j = i; j < topics[topicName].publishers.length - 1; j++) {\n                    topics[topicName].publishers[j] = topics[topicName].publishers[j + 1];\n                }\n\n                // Decrease the length of the array\n                topics[topicName].publishers.pop();\n\n                break;\n            }\n        }\n    }\n    function unadvertise(string memory topicName) public {\n        for (uint i = 0; i < topics[topicName].publishers.length; i++) {\n            if (topics[topicName].publishers[i] == msg.sender) {\n                removePublisher(topicName, msg.sender);\n                break;\n            }\n        }\n    }\n\n    function unsubscribe(string memory topicName) public {\n        require(topicExists(topicName), \"Topic does not exist\");\n        require(contains(topics[topicName].subscribers, msg.sender), \"Not subscribed to this topic\");\n\n        // Give back balance to subscriber\n        uint remainingBalance = topics[topicName].subscriberToBalance[msg.sender];\n        if (remainingBalance > 0) {\n            payable(msg.sender).transfer(remainingBalance);\n        }\n\n        // Remove subscriber from the list\n        for (uint i = 0; i < topics[topicName].subscribers.length; i++) {\n            if (topics[topicName].subscribers[i] == msg.sender) {\n                delete topics[topicName].subscribers[i];\n                break;\n            }\n        }\n    }\n\n    // Helper function to check if an address is in an array\n    function contains(address[] storage array, address element) internal view returns (bool) {\n        for (uint i = 0; i < array.length; i++) {\n            if (array[i] == element) {\n                return true;\n            }\n        }\n        return false;\n    }\n\n    function topicExists(string memory topicName) internal view returns (bool) {\n        for (uint i = 0; i < topicNames.length; i++) {\n            if (keccak256(abi.encodePacked(topics[topicNames[i]].name)) == keccak256(abi.encodePacked(topicName))) {\n                return true;\n            }\n        }\n        return false;\n    }\n\n    // Add this function to your contract\n    function printAllTopics() public view returns (string memory) {\n        string memory result;\n\n        for (uint i = 0; i < topicNames.length; i++) {\n            result = string(abi.encodePacked(result, \"Topic: \", topics[topicNames[i]].name, \"\\n\"));\n\n            // Print publishers\n            result = string(abi.encodePacked(result, \"Publishers: \"));\n\n            for (uint j = 0; j < topics[topicNames[i]].publishers.length; j++) {\n                if (topics[topicNames[i]].publishers[j] != address(0)) {\n                    result = string(abi.encodePacked(result, toAsciiString(topics[topicNames[i]].publishers[j]), \" \"));\n                }\n            }\n            result = string(abi.encodePacked(result, \"\\n\"));\n\n            // Print subscribers\n            result = string(abi.encodePacked(result, \"Subscribers: \"));\n            for (uint k = 0; k < topics[topicNames[i]].subscribers.length; k++) {\n                if (topics[topicNames[i]].subscribers[k] != address(0)) {\n                    result = string(abi.encodePacked(result, toAsciiString(topics[topicNames[i]].subscribers[k]), \" \"));\n                }\n            }\n            result = string(abi.encodePacked(result, \"\\n\\n\"));\n        }\n\n        return result;\n    }\n\n    function toAsciiString(address x) internal pure returns (string memory) {\n        bytes memory s = new bytes(40);\n        for (uint i = 0; i < 20; i++) {\n            bytes1 b = bytes1(uint8(uint(uint160(x)) / (2**(8*(19 - i)))));\n            bytes1 hi = bytes1(uint8(b) / 16);\n            bytes1 lo = bytes1(uint8(b) - 16 * uint8(hi));\n            s[2*i] = char(hi);\n            s[2*i+1] = char(lo);            \n        }\n        return string(s);\n    }\n\n    function char(bytes1 b) internal pure returns (bytes1 c) {\n        if (uint8(b) < 10) return bytes1(uint8(b) + 0x30);\n        else return bytes1(uint8(b) + 0x57);\n    }\n}\n",
  "sourcePath": "/Users/pobeaulieu/Desktop/pubsub_blockchain_based/contracts/PubSubContract.sol",
  "compiler": {
    "name": "solc",
    "version": "0.7.1+commit.f4a555be.Emscripten.clang"
  },
  "schemaVersion": "3.4.16",
  "updatedAt": "2023-11-22T22:37:53.694Z",
  "networkType": "ethereum",
  "devdoc": {
    "kind": "dev",
    "methods": {},
    "version": 1
  },
  "userdoc": {
    "kind": "user",
    "methods": {},
    "version": 1
  }
}