{
  "contractName": "StudentContract",
  "abi": [
    {
      "constant": true,
      "inputs": [],
      "name": "studentNumber",
      "outputs": [
        {
          "name": "",
          "type": "uint256"
        }
      ],
      "payable": false,
      "stateMutability": "view",
      "type": "function"
    },
    {
      "constant": true,
      "inputs": [],
      "name": "student",
      "outputs": [
        {
          "name": "",
          "type": "address"
        }
      ],
      "payable": false,
      "stateMutability": "view",
      "type": "function"
    },
    {
      "constant": true,
      "inputs": [
        {
          "name": "",
          "type": "address"
        }
      ],
      "name": "studentToStudentNumber",
      "outputs": [
        {
          "name": "",
          "type": "uint256"
        }
      ],
      "payable": false,
      "stateMutability": "view",
      "type": "function"
    },
    {
      "inputs": [],
      "payable": false,
      "stateMutability": "nonpayable",
      "type": "constructor"
    },
    {
      "anonymous": false,
      "inputs": [
        {
          "indexed": false,
          "name": "newStudentNumber",
          "type": "uint256"
        },
        {
          "indexed": false,
          "name": "studentAddress",
          "type": "address"
        }
      ],
      "name": "StudentNumberUpdated",
      "type": "event"
    },
    {
      "constant": false,
      "inputs": [
        {
          "name": "_studentNumber",
          "type": "uint256"
        }
      ],
      "name": "setStudentNumber",
      "outputs": [],
      "payable": true,
      "stateMutability": "payable",
      "type": "function"
    },
    {
      "constant": true,
      "inputs": [],
      "name": "getStudentNumber",
      "outputs": [
        {
          "name": "",
          "type": "uint256"
        }
      ],
      "payable": false,
      "stateMutability": "view",
      "type": "function"
    }
  ],
  "bytecode": "0x608060405234801561001057600080fd5b5033600160006101000a81548173ffffffffffffffffffffffffffffffffffffffff021916908373ffffffffffffffffffffffffffffffffffffffff160217905550600060026000600160009054906101000a900473ffffffffffffffffffffffffffffffffffffffff1673ffffffffffffffffffffffffffffffffffffffff1673ffffffffffffffffffffffffffffffffffffffff16815260200190815260200160002081905550610400806100c86000396000f3fe608060405260043610610067576000357c010000000000000000000000000000000000000000000000000000000090048063484a0d411461006c578063699450e8146100975780639ae0c8e8146100ee578063b1a2737714610153578063b60377591461017e575b600080fd5b34801561007857600080fd5b506100816101ac565b6040518082815260200191505060405180910390f35b3480156100a357600080fd5b506100ac6101b2565b604051808273ffffffffffffffffffffffffffffffffffffffff1673ffffffffffffffffffffffffffffffffffffffff16815260200191505060405180910390f35b3480156100fa57600080fd5b5061013d6004803603602081101561011157600080fd5b81019080803573ffffffffffffffffffffffffffffffffffffffff1690602001909291905050506101d8565b6040518082815260200191505060405180910390f35b34801561015f57600080fd5b506101686101f0565b6040518082815260200191505060405180910390f35b6101aa6004803603602081101561019457600080fd5b8101908080359060200190929190505050610259565b005b60005481565b600160009054906101000a900473ffffffffffffffffffffffffffffffffffffffff1681565b60026020528060005260406000206000915090505481565b600060026000600160009054906101000a900473ffffffffffffffffffffffffffffffffffffffff1673ffffffffffffffffffffffffffffffffffffffff1673ffffffffffffffffffffffffffffffffffffffff16815260200190815260200160002054905090565b66132f4579c98000341415156102d7576040517f08c379a00000000000000000000000000000000000000000000000000000000081526004018080602001828103825260208152602001807f53656e7420616d6f756e74206d75737420626520302e3030353420657468657281525060200191505060405180910390fd5b806000819055508060026000600160009054906101000a900473ffffffffffffffffffffffffffffffffffffffff1673ffffffffffffffffffffffffffffffffffffffff1673ffffffffffffffffffffffffffffffffffffffff168152602001908152602001600020819055507f7cdd722ab8d1d728bc6ed2741fab25c6540438aaabe1ff3a395df97f321c929c81600160009054906101000a900473ffffffffffffffffffffffffffffffffffffffff16604051808381526020018273ffffffffffffffffffffffffffffffffffffffff1673ffffffffffffffffffffffffffffffffffffffff1681526020019250505060405180910390a15056fea165627a7a72305820aeb5aff9a26212589ed4f9369eb98869d4ce74e3f04e43f28675dfb6c5073bb30029",
  "source": "pragma solidity >=0.5.1;\n\ncontract StudentContract {\n    uint public studentNumber;\n    address public student;\n    mapping(address => uint) public studentToStudentNumber;\n\n    // Event emitted when a student number is updated\n    event StudentNumberUpdated(uint newStudentNumber, address studentAddress);\n\n    constructor() public {\n        student = msg.sender;\n        studentToStudentNumber[student] = 0;\n    }\n\n    // Modifier to require a specific amount of Wei\n    modifier requirePayment() {\n        require(msg.value == 5400000000000000, \"Sent amount must be 0.0054 ether\");\n        _;\n    }\n\n    function setStudentNumber(uint _studentNumber) public payable requirePayment {\n        // Update the student number and emit an event\n        studentNumber = _studentNumber;\n        studentToStudentNumber[student] = _studentNumber;\n        emit StudentNumberUpdated(_studentNumber, student);\n    }\n\n    function getStudentNumber() public view returns (uint) {\n        return studentToStudentNumber[student];\n    }\n}\n",
  "sourcePath": "/Users/pobeaulieu/Desktop/pubsub_blockchain_based/contracts/StudentContract.sol",
  "compiler": {
    "name": "solc",
    "version": "0.5.1+commit.c8a2cb62.Emscripten.clang"
  },
  "schemaVersion": "3.4.16",
  "updatedAt": "2023-11-20T22:18:45.137Z",
  "networkType": "ethereum",
  "devdoc": {
    "methods": {}
  },
  "userdoc": {
    "methods": {}
  }
}